{
  "contractName": "FunFaceBot",
  "abi": [
    {
      "constant": true,
      "inputs": [
        {
          "name": "_address",
          "type": "address"
        },
        {
          "name": "messageHash",
          "type": "bytes32"
        },
        {
          "name": "v",
          "type": "uint8"
        },
        {
          "name": "r",
          "type": "bytes32"
        },
        {
          "name": "s",
          "type": "bytes32"
        }
      ],
      "name": "isSigned",
      "outputs": [
        {
          "name": "",
          "type": "bool"
        }
      ],
      "payable": false,
      "stateMutability": "pure",
      "type": "function",
      "signature": "0x8677ebe8"
    },
    {
      "constant": true,
      "inputs": [
        {
          "name": "",
          "type": "uint256"
        },
        {
          "name": "",
          "type": "address"
        }
      ],
      "name": "timestampByAddressBySpace",
      "outputs": [
        {
          "name": "",
          "type": "uint256"
        }
      ],
      "payable": false,
      "stateMutability": "view",
      "type": "function",
      "signature": "0xb8cfe820"
    },
    {
      "constant": true,
      "inputs": [
        {
          "name": "",
          "type": "uint256"
        },
        {
          "name": "",
          "type": "uint256"
        }
      ],
      "name": "whitelistForSpace",
      "outputs": [
        {
          "name": "",
          "type": "address"
        }
      ],
      "payable": false,
      "stateMutability": "view",
      "type": "function",
      "signature": "0xc00c1c18"
    },
    {
      "constant": true,
      "inputs": [
        {
          "name": "",
          "type": "uint256"
        },
        {
          "name": "",
          "type": "address"
        }
      ],
      "name": "whitelistedForSpace",
      "outputs": [
        {
          "name": "",
          "type": "bool"
        }
      ],
      "payable": false,
      "stateMutability": "view",
      "type": "function",
      "signature": "0xd82da104"
    },
    {
      "anonymous": false,
      "inputs": [
        {
          "indexed": false,
          "name": "",
          "type": "uint256"
        }
      ],
      "name": "newSpaceCreated",
      "type": "event",
      "signature": "0xdc0fd1e8438b3ba2a77036f177c63d4702a48c05caeca7dd264b0600a4cb33a6"
    },
    {
      "anonymous": false,
      "inputs": [
        {
          "indexed": false,
          "name": "",
          "type": "uint256"
        }
      ],
      "name": "spaceMemberAdded",
      "type": "event",
      "signature": "0x1ad7fe4a37b94f0f9ab6b197d9edecf39383ef9feeb4ea5eef1ed8d09645abf8"
    },
    {
      "anonymous": false,
      "inputs": [
        {
          "indexed": false,
          "name": "",
          "type": "address"
        }
      ],
      "name": "whitelisted",
      "type": "event",
      "signature": "0xd936547e15d595cd7e4c0d71ce9ddbc75ae4fd243d310184fbd19390c58a304b"
    },
    {
      "anonymous": false,
      "inputs": [
        {
          "indexed": false,
          "name": "timestamp",
          "type": "uint256"
        }
      ],
      "name": "timestampSet",
      "type": "event",
      "signature": "0x3b64cf30f4c106efbe6a9fc6bb661633b418481105f13dc2f94c30c9567cde76"
    },
    {
      "constant": true,
      "inputs": [
        {
          "name": "userToCheck",
          "type": "address"
        },
        {
          "name": "space",
          "type": "uint256"
        }
      ],
      "name": "getUserIndexInWhitelist",
      "outputs": [
        {
          "name": "",
          "type": "uint256"
        }
      ],
      "payable": false,
      "stateMutability": "view",
      "type": "function",
      "signature": "0x8ff169d8"
    },
    {
      "constant": true,
      "inputs": [
        {
          "name": "space",
          "type": "uint256"
        },
        {
          "name": "userWhoCommittedTimestamp",
          "type": "address"
        }
      ],
      "name": "getTimestamp",
      "outputs": [
        {
          "name": "",
          "type": "uint256"
        }
      ],
      "payable": false,
      "stateMutability": "view",
      "type": "function",
      "signature": "0x62fa0dba"
    },
    {
      "constant": false,
      "inputs": [
        {
          "name": "index",
          "type": "uint256"
        },
        {
          "name": "space",
          "type": "uint256"
        }
      ],
      "name": "commitSignatureTime",
      "outputs": [],
      "payable": false,
      "stateMutability": "nonpayable",
      "type": "function",
      "signature": "0x3cb4304d"
    },
    {
      "constant": true,
      "inputs": [
        {
          "name": "index",
          "type": "uint256"
        },
        {
          "name": "timestamp",
          "type": "uint256"
        },
        {
          "name": "userRegisteringSpace",
          "type": "address"
        },
        {
          "name": "space",
          "type": "uint256"
        },
        {
          "name": "v",
          "type": "uint8"
        },
        {
          "name": "r",
          "type": "bytes32"
        },
        {
          "name": "s",
          "type": "bytes32"
        }
      ],
      "name": "verifySignature",
      "outputs": [
        {
          "name": "",
          "type": "bool"
        }
      ],
      "payable": false,
      "stateMutability": "view",
      "type": "function",
      "signature": "0xace1bfe9"
    },
    {
      "constant": false,
      "inputs": [],
      "name": "createSpace",
      "outputs": [
        {
          "name": "",
          "type": "uint256"
        }
      ],
      "payable": false,
      "stateMutability": "nonpayable",
      "type": "function",
      "signature": "0x97eb6f18"
    },
    {
      "constant": false,
      "inputs": [
        {
          "name": "newMember",
          "type": "address"
        },
        {
          "name": "space",
          "type": "uint256"
        }
      ],
      "name": "addTowhitelist",
      "outputs": [],
      "payable": false,
      "stateMutability": "nonpayable",
      "type": "function",
      "signature": "0xb7bc0a24"
    },
    {
      "constant": true,
      "inputs": [
        {
          "name": "space",
          "type": "uint256"
        }
      ],
      "name": "getWhitelistBySpace",
      "outputs": [
        {
          "name": "",
          "type": "address[]"
        }
      ],
      "payable": false,
      "stateMutability": "view",
      "type": "function",
      "signature": "0x73172c9d"
    }
  ],
  "bytecode": "0x6080604052600060035534801561001557600080fd5b506110ba806100256000396000f3fe6080604052600436106100af576000357c0100000000000000000000000000000000000000000000000000000000900463ffffffff1680633cb4304d146100b457806362fa0dba146100f957806373172c9d146101685780638677ebe8146101f85780638ff169d81461028c57806397eb6f18146102fb578063ace1bfe914610326578063b7bc0a24146103ce578063b8cfe82014610429578063c00c1c1814610498578063d82da1041461051d575b600080fd5b3480156100c057600080fd5b506100f7600480360360408110156100d757600080fd5b810190808035906020019092919080359060200190929190505050610590565b005b34801561010557600080fd5b506101526004803603604081101561011c57600080fd5b8101908080359060200190929190803573ffffffffffffffffffffffffffffffffffffffff1690602001909291905050506106f3565b6040518082815260200191505060405180910390f35b34801561017457600080fd5b506101a16004803603602081101561018b57600080fd5b810190808035906020019092919050505061074e565b6040518080602001828103825283818151815260200191508051906020019060200280838360005b838110156101e45780820151818401526020810190506101c9565b505050509050019250505060405180910390f35b34801561020457600080fd5b50610272600480360360a081101561021b57600080fd5b81019080803573ffffffffffffffffffffffffffffffffffffffff16906020019092919080359060200190929190803560ff16906020019092919080359060200190929190803590602001909291905050506107ee565b604051808215151515815260200191505060405180910390f35b34801561029857600080fd5b506102e5600480360360408110156102af57600080fd5b81019080803573ffffffffffffffffffffffffffffffffffffffff1690602001909291908035906020019092919050505061081c565b6040518082815260200191505060405180910390f35b34801561030757600080fd5b506103106108da565b6040518082815260200191505060405180910390f35b34801561033257600080fd5b506103b4600480360360e081101561034957600080fd5b810190808035906020019092919080359060200190929190803573ffffffffffffffffffffffffffffffffffffffff16906020019092919080359060200190929190803560ff1690602001909291908035906020019092919080359060200190929190505050610a0b565b604051808215151515815260200191505060405180910390f35b3480156103da57600080fd5b50610427600480360360408110156103f157600080fd5b81019080803573ffffffffffffffffffffffffffffffffffffffff16906020019092919080359060200190929190505050610c8f565b005b34801561043557600080fd5b506104826004803603604081101561044c57600080fd5b8101908080359060200190929190803573ffffffffffffffffffffffffffffffffffffffff169060200190929190505050610e7b565b6040518082815260200191505060405180910390f35b3480156104a457600080fd5b506104db600480360360408110156104bb57600080fd5b810190808035906020019092919080359060200190929190505050610ea0565b604051808273ffffffffffffffffffffffffffffffffffffffff1673ffffffffffffffffffffffffffffffffffffffff16815260200191505060405180910390f35b34801561052957600080fd5b506105766004803603604081101561054057600080fd5b8101908080359060200190929190803573ffffffffffffffffffffffffffffffffffffffff169060200190929190505050610eed565b604051808215151515815260200191505060405180910390f35b3373ffffffffffffffffffffffffffffffffffffffff16600080838152602001908152602001600020838154811015156105c657fe5b9060005260206000200160009054906101000a900473ffffffffffffffffffffffffffffffffffffffff1673ffffffffffffffffffffffffffffffffffffffff1614151561061357600080fd5b426002600083815260200190815260200160002060003373ffffffffffffffffffffffffffffffffffffffff1673ffffffffffffffffffffffffffffffffffffffff168152602001908152602001600020819055507f3b64cf30f4c106efbe6a9fc6bb661633b418481105f13dc2f94c30c9567cde766002600083815260200190815260200160002060003373ffffffffffffffffffffffffffffffffffffffff1673ffffffffffffffffffffffffffffffffffffffff168152602001908152602001600020546040518082815260200191505060405180910390a15050565b60006002600084815260200190815260200160002060008373ffffffffffffffffffffffffffffffffffffffff1673ffffffffffffffffffffffffffffffffffffffff16815260200190815260200160002054905092915050565b60606000808381526020019081526020016000208054806020026020016040519081016040528092919081815260200182805480156107e257602002820191906000526020600020905b8160009054906101000a900473ffffffffffffffffffffffffffffffffffffffff1673ffffffffffffffffffffffffffffffffffffffff1681526020019060010190808311610798575b50505050509050919050565b60006107fd8686868686610f1c565b8061081157506108108686868686610fbe565b5b905095945050505050565b600080600090505b600080848152602001908152602001600020805490508110156108d2578373ffffffffffffffffffffffffffffffffffffffff166000808581526020019081526020016000208281548110151561087757fe5b9060005260206000200160009054906101000a900473ffffffffffffffffffffffffffffffffffffffff1673ffffffffffffffffffffffffffffffffffffffff1614156108c757809150506108d4565b600181019050610824565b505b92915050565b600060016003540160038190555060008060035481526020019081526020016000203390806001815401808255809150509060018203906000526020600020016000909192909190916101000a81548173ffffffffffffffffffffffffffffffffffffffff021916908373ffffffffffffffffffffffffffffffffffffffff160217905550506001806000600354815260200190815260200160002060003373ffffffffffffffffffffffffffffffffffffffff1673ffffffffffffffffffffffffffffffffffffffff16815260200190815260200160002060006101000a81548160ff0219169083151502179055507fdc0fd1e8438b3ba2a77036f177c63d4702a48c05caeca7dd264b0600a4cb33a66003546040518082815260200191505060405180910390a1600354905090565b6000610b918660197f01000000000000000000000000000000000000000000000000000000000000000260007f01000000000000000000000000000000000000000000000000000000000000000230898c60405160200180867effffffffffffffffffffffffffffffffffffffffffffffffffffffffffffff19167effffffffffffffffffffffffffffffffffffffffffffffffffffffffffffff19168152600101857effffffffffffffffffffffffffffffffffffffffffffffffffffffffffffff19167effffffffffffffffffffffffffffffffffffffffffffffffffffffffffffff191681526001018473ffffffffffffffffffffffffffffffffffffffff1673ffffffffffffffffffffffffffffffffffffffff166c01000000000000000000000000028152601401807f47656e657261746520617574686f72697a6174696f6e20636f64650000000000815250601b0183815260200182815260200195505050505050604051602081830303815290604052805190602001208686866107ee565b1515610b9c57600080fd5b610e1087420310158015610bff57506002600086815260200190815260200160002060008773ffffffffffffffffffffffffffffffffffffffff1673ffffffffffffffffffffffffffffffffffffffff1681526020019081526020016000205487145b1515610c0a57600080fd5b8573ffffffffffffffffffffffffffffffffffffffff1660008087815260200190815260200160002089815481101515610c4057fe5b9060005260206000200160009054906101000a900473ffffffffffffffffffffffffffffffffffffffff1673ffffffffffffffffffffffffffffffffffffffff16149050979650505050505050565b600115156001600083815260200190815260200160002060003373ffffffffffffffffffffffffffffffffffffffff1673ffffffffffffffffffffffffffffffffffffffff16815260200190815260200160002060009054906101000a900460ff161515141515610cff57600080fd5b6000808281526020019081526020016000208290806001815401808255809150509060018203906000526020600020016000909192909190916101000a81548173ffffffffffffffffffffffffffffffffffffffff021916908373ffffffffffffffffffffffffffffffffffffffff16021790555050600180600083815260200190815260200160002060008473ffffffffffffffffffffffffffffffffffffffff1673ffffffffffffffffffffffffffffffffffffffff16815260200190815260200160002060006101000a81548160ff0219169083151502179055507f1ad7fe4a37b94f0f9ab6b197d9edecf39383ef9feeb4ea5eef1ed8d09645abf8816040518082815260200191505060405180910390a17fd936547e15d595cd7e4c0d71ce9ddbc75ae4fd243d310184fbd19390c58a304b82604051808273ffffffffffffffffffffffffffffffffffffffff1673ffffffffffffffffffffffffffffffffffffffff16815260200191505060405180910390a15050565b6002602052816000526040600020602052806000526040600020600091509150505481565b600060205281600052604060002081815481101515610ebb57fe5b906000526020600020016000915091509054906101000a900473ffffffffffffffffffffffffffffffffffffffff1681565b60016020528160005260406000206020528060005260406000206000915091509054906101000a900460ff1681565b60008573ffffffffffffffffffffffffffffffffffffffff1660018686868660405160008152602001604052604051808581526020018460ff1660ff1681526020018381526020018281526020019450505050506020604051602081039080840390855afa158015610f92573d6000803e3d6000fd5b5050506020604051035173ffffffffffffffffffffffffffffffffffffffff1614905095945050505050565b600060606040805190810160405280601c81526020017f19457468657265756d205369676e6564204d6573736167653a0a33320000000081525090506110828782886040516020018083805190602001908083835b6020831015156110385780518252602082019150602081019050602083039250611013565b6001836020036101000a0380198251168184511680821785525050505050509050018281526020019250505060405160208183030381529060405280519060200120878787610f1c565b9150509594505050505056fea165627a7a72305820c9d1285a597c878d9b0a3c17c887749faf5f224f40fa0064cfe68578d060a2c40029",
  "source": "pragma solidity ^0.5.0;\nimport './SignatureVerifier.sol';\n\ncontract FunFaceBot is SignatureVerifier{\n    mapping (uint256 => address[]) public whitelistForSpace;\n    mapping (uint256 => mapping(address => bool)) public whitelistedForSpace;\n\n    // mapping (uint256 => mapping(address => bytes32)) public latestCommittedHashByAddressBySpace;\n    mapping (uint256 => mapping(address => uint256)) public timestampByAddressBySpace;\n    uint256 latestSpaceCount = 0;\n\n    event newSpaceCreated(uint256);\n    event spaceMemberAdded(uint256);\n    event whitelisted(address);\n\n    event timestampSet(uint256 timestamp);\n\n    function getUserIndexInWhitelist(address userToCheck, uint256 space) public view returns (uint256) {\n        for(uint256 i = 0; i < whitelistForSpace[space].length; i += 1){\n            if(whitelistForSpace[space][i] == userToCheck){\n                return i;\n            }\n        }\n    }\n\n    function getTimestamp (uint256 space, address userWhoCommittedTimestamp) public view returns (uint256){\n        return timestampByAddressBySpace[space][userWhoCommittedTimestamp];\n    }\n\n    function commitSignatureTime(uint256 index, uint256 space) public {\n        require(whitelistForSpace[space][index] == msg.sender);\n        timestampByAddressBySpace[space][msg.sender] = now;\n        emit timestampSet(timestampByAddressBySpace[space][msg.sender]);\n    }\n\n    function verifySignature(uint256 index, uint256 timestamp, address userRegisteringSpace, uint256 space, uint8 v, bytes32 r, bytes32 s) public view returns (bool){\n        require(\n            isSigned(\n                userRegisteringSpace, \n                keccak256(abi.encodePacked(\n                    byte(0x19),\n                    byte(0),\n                    address(this), \n                    'Generate authorization code', \n                    space,\n                    timestamp\n            ))\n            , v, r, s));\n        \n        require (\n            now - timestamp >= 3600 && \n            timestamp == timestampByAddressBySpace[space][userRegisteringSpace]\n        );\n        return(whitelistForSpace[space][index] == userRegisteringSpace);\n    }\n\n    function createSpace() public returns (uint256){\n        latestSpaceCount = latestSpaceCount + 1;\n        whitelistForSpace[latestSpaceCount].push(msg.sender);\n        whitelistedForSpace[latestSpaceCount][msg.sender] = true;\n        emit newSpaceCreated(latestSpaceCount);\n        return latestSpaceCount;\n    }\n\n    function addTowhitelist (address newMember, uint256 space) public {\n        require(whitelistedForSpace[space][msg.sender] == true);\n        whitelistForSpace[space].push(newMember);\n        whitelistedForSpace[space][newMember] = true;\n        emit spaceMemberAdded(space);\n        emit whitelisted(newMember);\n    }\n\n    function getWhitelistBySpace(uint256 space) public view returns (address[] memory){\n        return whitelistForSpace[space];\n    }\n}\n\n",
  "sourcePath": "/Users/anurag/Projects/slackbot/sbsol2/contracts/FunFaceBot.sol",
  "compiler": {
    "name": "solc",
    "version": "0.5.0+commit.1d4f565a.Emscripten.clang"
  },
  "schemaVersion": "3.0.0",
  "updatedAt": "2019-04-30T18:54:28.846Z",
  "devdoc": {
    "methods": {
      "isSigned(address,bytes32,uint8,bytes32,bytes32)": {
        "params": {
          "_address": "The address that may or may not have signed the passed messageHash.",
          "messageHash": "The messageHash that may or may not have been signed.",
          "r": "The r component of the signature.",
          "s": "The s component of the signature.",
          "v": "The v component of the signature."
        },
        "return": "true if the signature can be verified, false otherwise."
      }
    }
  },
  "userdoc": {
    "methods": {
      "isSigned(address,bytes32,uint8,bytes32,bytes32)": {
        "notice": "Determines whether the passed signature of `messageHash` was made by the private key of `_address`."
      }
    }
  }
}