{
  "contractName": "SignatureVerifier",
  "abi": [
    {
      "constant": true,
      "inputs": [
        {
          "name": "_address",
          "type": "address"
        },
        {
          "name": "messageHash",
          "type": "bytes32"
        },
        {
          "name": "v",
          "type": "uint8"
        },
        {
          "name": "r",
          "type": "bytes32"
        },
        {
          "name": "s",
          "type": "bytes32"
        }
      ],
      "name": "isSigned",
      "outputs": [
        {
          "name": "",
          "type": "bool"
        }
      ],
      "payable": false,
      "stateMutability": "pure",
      "type": "function"
    }
  ],
  "bytecode": "0x608060405234801561001057600080fd5b506102a6806100206000396000f3fe608060405260043610610041576000357c0100000000000000000000000000000000000000000000000000000000900463ffffffff1680638677ebe814610046575b600080fd5b34801561005257600080fd5b506100c0600480360360a081101561006957600080fd5b81019080803573ffffffffffffffffffffffffffffffffffffffff16906020019092919080359060200190929190803560ff16906020019092919080359060200190929190803590602001909291905050506100da565b604051808215151515815260200191505060405180910390f35b60006100e98686868686610108565b806100fd57506100fc86868686866101aa565b5b905095945050505050565b60008573ffffffffffffffffffffffffffffffffffffffff1660018686868660405160008152602001604052604051808581526020018460ff1660ff1681526020018381526020018281526020019450505050506020604051602081039080840390855afa15801561017e573d6000803e3d6000fd5b5050506020604051035173ffffffffffffffffffffffffffffffffffffffff1614905095945050505050565b600060606040805190810160405280601c81526020017f19457468657265756d205369676e6564204d6573736167653a0a333200000000815250905061026e8782886040516020018083805190602001908083835b60208310151561022457805182526020820191506020810190506020830392506101ff565b6001836020036101000a0380198251168184511680821785525050505050509050018281526020019250505060405160208183030381529060405280519060200120878787610108565b9150509594505050505056fea165627a7a72305820774747ef8b690fa470e105243ce842f15cfae60d00b3ca0e18c63dbaa34f280f0029",
  "source": "pragma solidity ^0.5.0;\n\n/// @title Provides helper functions to determine the validity of passed signatures.\n/// @author Noah Zinsmeister\n/// @dev Supports both prefixed and un-prefixed signatures.\ncontract SignatureVerifier {\n    /// @notice Determines whether the passed signature of `messageHash` was made by the private key of `_address`.\n    /// @param _address The address that may or may not have signed the passed messageHash.\n    /// @param messageHash The messageHash that may or may not have been signed.\n    /// @param v The v component of the signature.\n    /// @param r The r component of the signature.\n    /// @param s The s component of the signature.\n    /// @return true if the signature can be verified, false otherwise.\n    function isSigned(address _address, bytes32 messageHash, uint8 v, bytes32 r, bytes32 s) public pure returns (bool) {\n        return _isSigned(_address, messageHash, v, r, s) || _isSignedPrefixed(_address, messageHash, v, r, s);\n    }\n\n    /// @dev Checks unprefixed signatures.\n    function _isSigned(address _address, bytes32 messageHash, uint8 v, bytes32 r, bytes32 s)\n        internal pure returns (bool)\n    {\n        return ecrecover(messageHash, v, r, s) == _address;\n    }\n\n    /// @dev Checks prefixed signatures.\n    function _isSignedPrefixed(address _address, bytes32 messageHash, uint8 v, bytes32 r, bytes32 s)\n        internal pure returns (bool)\n    {\n        bytes memory prefix = \"\\x19Ethereum Signed Message:\\n32\";\n        return _isSigned(_address, keccak256(abi.encodePacked(prefix, messageHash)), v, r, s);\n    }\n}",
  "sourcePath": "/Users/anurag/Projects/slackbot/sbsol2/contracts/SignatureVerifier.sol",
  "compiler": {
    "name": "solc",
    "version": "0.5.0+commit.1d4f565a.Emscripten.clang"
  },
  "schemaVersion": "3.0.0",
  "updatedAt": "2019-04-30T18:10:31.536Z",
  "devdoc": {
    "author": "Noah Zinsmeister",
    "details": "Supports both prefixed and un-prefixed signatures.",
    "methods": {
      "isSigned(address,bytes32,uint8,bytes32,bytes32)": {
        "params": {
          "_address": "The address that may or may not have signed the passed messageHash.",
          "messageHash": "The messageHash that may or may not have been signed.",
          "r": "The r component of the signature.",
          "s": "The s component of the signature.",
          "v": "The v component of the signature."
        },
        "return": "true if the signature can be verified, false otherwise."
      }
    },
    "title": "Provides helper functions to determine the validity of passed signatures."
  },
  "userdoc": {
    "methods": {
      "isSigned(address,bytes32,uint8,bytes32,bytes32)": {
        "notice": "Determines whether the passed signature of `messageHash` was made by the private key of `_address`."
      }
    }
  }
}